{
  "_format": "hh-sol-artifact-1",
  "contractName": "BuyMyRoom",
  "sourceName": "contracts/BuyMyRoom.sol",
  "abi": [
    {
      "inputs": [],
      "stateMutability": "nonpayable",
      "type": "constructor"
    },
    {
      "inputs": [
        {
          "internalType": "address",
          "name": "sender",
          "type": "address"
        },
        {
          "internalType": "uint256",
          "name": "tokenId",
          "type": "uint256"
        },
        {
          "internalType": "address",
          "name": "owner",
          "type": "address"
        }
      ],
      "name": "ERC721IncorrectOwner",
      "type": "error"
    },
    {
      "inputs": [
        {
          "internalType": "address",
          "name": "operator",
          "type": "address"
        },
        {
          "internalType": "uint256",
          "name": "tokenId",
          "type": "uint256"
        }
      ],
      "name": "ERC721InsufficientApproval",
      "type": "error"
    },
    {
      "inputs": [
        {
          "internalType": "address",
          "name": "approver",
          "type": "address"
        }
      ],
      "name": "ERC721InvalidApprover",
      "type": "error"
    },
    {
      "inputs": [
        {
          "internalType": "address",
          "name": "operator",
          "type": "address"
        }
      ],
      "name": "ERC721InvalidOperator",
      "type": "error"
    },
    {
      "inputs": [
        {
          "internalType": "address",
          "name": "owner",
          "type": "address"
        }
      ],
      "name": "ERC721InvalidOwner",
      "type": "error"
    },
    {
      "inputs": [
        {
          "internalType": "address",
          "name": "receiver",
          "type": "address"
        }
      ],
      "name": "ERC721InvalidReceiver",
      "type": "error"
    },
    {
      "inputs": [
        {
          "internalType": "address",
          "name": "sender",
          "type": "address"
        }
      ],
      "name": "ERC721InvalidSender",
      "type": "error"
    },
    {
      "inputs": [
        {
          "internalType": "uint256",
          "name": "tokenId",
          "type": "uint256"
        }
      ],
      "name": "ERC721NonexistentToken",
      "type": "error"
    },
    {
      "anonymous": false,
      "inputs": [
        {
          "indexed": true,
          "internalType": "address",
          "name": "owner",
          "type": "address"
        },
        {
          "indexed": true,
          "internalType": "address",
          "name": "approved",
          "type": "address"
        },
        {
          "indexed": true,
          "internalType": "uint256",
          "name": "tokenId",
          "type": "uint256"
        }
      ],
      "name": "Approval",
      "type": "event"
    },
    {
      "anonymous": false,
      "inputs": [
        {
          "indexed": true,
          "internalType": "address",
          "name": "owner",
          "type": "address"
        },
        {
          "indexed": true,
          "internalType": "address",
          "name": "operator",
          "type": "address"
        },
        {
          "indexed": false,
          "internalType": "bool",
          "name": "approved",
          "type": "bool"
        }
      ],
      "name": "ApprovalForAll",
      "type": "event"
    },
    {
      "anonymous": false,
      "inputs": [
        {
          "indexed": false,
          "internalType": "uint256",
          "name": "tokenId",
          "type": "uint256"
        },
        {
          "indexed": false,
          "internalType": "address",
          "name": "newOwner",
          "type": "address"
        }
      ],
      "name": "HouseAssigned",
      "type": "event"
    },
    {
      "anonymous": false,
      "inputs": [
        {
          "indexed": false,
          "internalType": "uint256",
          "name": "tokenId",
          "type": "uint256"
        },
        {
          "indexed": false,
          "internalType": "uint256",
          "name": "price",
          "type": "uint256"
        },
        {
          "indexed": false,
          "internalType": "address",
          "name": "owner",
          "type": "address"
        }
      ],
      "name": "HouseListed",
      "type": "event"
    },
    {
      "anonymous": false,
      "inputs": [
        {
          "indexed": false,
          "internalType": "uint256",
          "name": "tokenId",
          "type": "uint256"
        },
        {
          "indexed": false,
          "internalType": "uint256",
          "name": "price",
          "type": "uint256"
        },
        {
          "indexed": false,
          "internalType": "address",
          "name": "newOwner",
          "type": "address"
        }
      ],
      "name": "HouseSold",
      "type": "event"
    },
    {
      "anonymous": false,
      "inputs": [
        {
          "indexed": true,
          "internalType": "address",
          "name": "from",
          "type": "address"
        },
        {
          "indexed": true,
          "internalType": "address",
          "name": "to",
          "type": "address"
        },
        {
          "indexed": true,
          "internalType": "uint256",
          "name": "tokenId",
          "type": "uint256"
        }
      ],
      "name": "Transfer",
      "type": "event"
    },
    {
      "inputs": [
        {
          "internalType": "address",
          "name": "to",
          "type": "address"
        },
        {
          "internalType": "uint256",
          "name": "tokenId",
          "type": "uint256"
        }
      ],
      "name": "approve",
      "outputs": [],
      "stateMutability": "nonpayable",
      "type": "function"
    },
    {
      "inputs": [],
      "name": "assignThreeUnownedHousesToUser",
      "outputs": [],
      "stateMutability": "nonpayable",
      "type": "function"
    },
    {
      "inputs": [
        {
          "internalType": "address",
          "name": "owner",
          "type": "address"
        }
      ],
      "name": "balanceOf",
      "outputs": [
        {
          "internalType": "uint256",
          "name": "",
          "type": "uint256"
        }
      ],
      "stateMutability": "view",
      "type": "function"
    },
    {
      "inputs": [
        {
          "internalType": "uint256",
          "name": "tokenId",
          "type": "uint256"
        }
      ],
      "name": "buyHouse",
      "outputs": [],
      "stateMutability": "payable",
      "type": "function"
    },
    {
      "inputs": [],
      "name": "buyTokens",
      "outputs": [],
      "stateMutability": "payable",
      "type": "function"
    },
    {
      "inputs": [],
      "name": "contractOwner",
      "outputs": [
        {
          "internalType": "address",
          "name": "",
          "type": "address"
        }
      ],
      "stateMutability": "view",
      "type": "function"
    },
    {
      "inputs": [],
      "name": "currentTokenId",
      "outputs": [
        {
          "internalType": "uint256",
          "name": "",
          "type": "uint256"
        }
      ],
      "stateMutability": "view",
      "type": "function"
    },
    {
      "inputs": [],
      "name": "feePercentage",
      "outputs": [
        {
          "internalType": "uint256",
          "name": "",
          "type": "uint256"
        }
      ],
      "stateMutability": "view",
      "type": "function"
    },
    {
      "inputs": [],
      "name": "getAllForSaleHouses",
      "outputs": [
        {
          "components": [
            {
              "internalType": "uint256",
              "name": "tokenId",
              "type": "uint256"
            },
            {
              "internalType": "address",
              "name": "owner",
              "type": "address"
            },
            {
              "internalType": "uint256",
              "name": "listedTimestamp",
              "type": "uint256"
            },
            {
              "internalType": "bool",
              "name": "isForSale",
              "type": "bool"
            },
            {
              "internalType": "uint256",
              "name": "price",
              "type": "uint256"
            }
          ],
          "internalType": "struct BuyMyRoom.House[]",
          "name": "",
          "type": "tuple[]"
        }
      ],
      "stateMutability": "view",
      "type": "function"
    },
    {
      "inputs": [
        {
          "internalType": "uint256",
          "name": "tokenId",
          "type": "uint256"
        }
      ],
      "name": "getApproved",
      "outputs": [
        {
          "internalType": "address",
          "name": "",
          "type": "address"
        }
      ],
      "stateMutability": "view",
      "type": "function"
    },
    {
      "inputs": [
        {
          "internalType": "uint256",
          "name": "tokenId",
          "type": "uint256"
        }
      ],
      "name": "getHouseInfo",
      "outputs": [
        {
          "components": [
            {
              "internalType": "uint256",
              "name": "tokenId",
              "type": "uint256"
            },
            {
              "internalType": "address",
              "name": "owner",
              "type": "address"
            },
            {
              "internalType": "uint256",
              "name": "listedTimestamp",
              "type": "uint256"
            },
            {
              "internalType": "bool",
              "name": "isForSale",
              "type": "bool"
            },
            {
              "internalType": "uint256",
              "name": "price",
              "type": "uint256"
            }
          ],
          "internalType": "struct BuyMyRoom.House",
          "name": "",
          "type": "tuple"
        }
      ],
      "stateMutability": "view",
      "type": "function"
    },
    {
      "inputs": [],
      "name": "getTotalFeesCollected",
      "outputs": [
        {
          "internalType": "uint256",
          "name": "",
          "type": "uint256"
        }
      ],
      "stateMutability": "view",
      "type": "function"
    },
    {
      "inputs": [],
      "name": "getUserTokenBalance",
      "outputs": [
        {
          "internalType": "uint256",
          "name": "",
          "type": "uint256"
        }
      ],
      "stateMutability": "view",
      "type": "function"
    },
    {
      "inputs": [],
      "name": "helloworld",
      "outputs": [
        {
          "internalType": "string",
          "name": "",
          "type": "string"
        }
      ],
      "stateMutability": "pure",
      "type": "function"
    },
    {
      "inputs": [
        {
          "internalType": "uint256",
          "name": "",
          "type": "uint256"
        }
      ],
      "name": "houses",
      "outputs": [
        {
          "internalType": "uint256",
          "name": "tokenId",
          "type": "uint256"
        },
        {
          "internalType": "address",
          "name": "owner",
          "type": "address"
        },
        {
          "internalType": "uint256",
          "name": "listedTimestamp",
          "type": "uint256"
        },
        {
          "internalType": "bool",
          "name": "isForSale",
          "type": "bool"
        },
        {
          "internalType": "uint256",
          "name": "price",
          "type": "uint256"
        }
      ],
      "stateMutability": "view",
      "type": "function"
    },
    {
      "inputs": [
        {
          "internalType": "address",
          "name": "owner",
          "type": "address"
        },
        {
          "internalType": "address",
          "name": "operator",
          "type": "address"
        }
      ],
      "name": "isApprovedForAll",
      "outputs": [
        {
          "internalType": "bool",
          "name": "",
          "type": "bool"
        }
      ],
      "stateMutability": "view",
      "type": "function"
    },
    {
      "inputs": [
        {
          "internalType": "uint256",
          "name": "tokenId",
          "type": "uint256"
        },
        {
          "internalType": "uint256",
          "name": "price",
          "type": "uint256"
        }
      ],
      "name": "listHouse",
      "outputs": [],
      "stateMutability": "nonpayable",
      "type": "function"
    },
    {
      "inputs": [],
      "name": "name",
      "outputs": [
        {
          "internalType": "string",
          "name": "",
          "type": "string"
        }
      ],
      "stateMutability": "view",
      "type": "function"
    },
    {
      "inputs": [
        {
          "internalType": "uint256",
          "name": "tokenId",
          "type": "uint256"
        }
      ],
      "name": "ownerOf",
      "outputs": [
        {
          "internalType": "address",
          "name": "",
          "type": "address"
        }
      ],
      "stateMutability": "view",
      "type": "function"
    },
    {
      "inputs": [],
      "name": "rewardtoken",
      "outputs": [
        {
          "internalType": "contract MyERC20",
          "name": "",
          "type": "address"
        }
      ],
      "stateMutability": "view",
      "type": "function"
    },
    {
      "inputs": [
        {
          "internalType": "address",
          "name": "from",
          "type": "address"
        },
        {
          "internalType": "address",
          "name": "to",
          "type": "address"
        },
        {
          "internalType": "uint256",
          "name": "tokenId",
          "type": "uint256"
        }
      ],
      "name": "safeTransferFrom",
      "outputs": [],
      "stateMutability": "nonpayable",
      "type": "function"
    },
    {
      "inputs": [
        {
          "internalType": "address",
          "name": "from",
          "type": "address"
        },
        {
          "internalType": "address",
          "name": "to",
          "type": "address"
        },
        {
          "internalType": "uint256",
          "name": "tokenId",
          "type": "uint256"
        },
        {
          "internalType": "bytes",
          "name": "data",
          "type": "bytes"
        }
      ],
      "name": "safeTransferFrom",
      "outputs": [],
      "stateMutability": "nonpayable",
      "type": "function"
    },
    {
      "inputs": [
        {
          "internalType": "address",
          "name": "operator",
          "type": "address"
        },
        {
          "internalType": "bool",
          "name": "approved",
          "type": "bool"
        }
      ],
      "name": "setApprovalForAll",
      "outputs": [],
      "stateMutability": "nonpayable",
      "type": "function"
    },
    {
      "inputs": [
        {
          "internalType": "bytes4",
          "name": "interfaceId",
          "type": "bytes4"
        }
      ],
      "name": "supportsInterface",
      "outputs": [
        {
          "internalType": "bool",
          "name": "",
          "type": "bool"
        }
      ],
      "stateMutability": "view",
      "type": "function"
    },
    {
      "inputs": [],
      "name": "symbol",
      "outputs": [
        {
          "internalType": "string",
          "name": "",
          "type": "string"
        }
      ],
      "stateMutability": "view",
      "type": "function"
    },
    {
      "inputs": [
        {
          "internalType": "uint256",
          "name": "tokenId",
          "type": "uint256"
        }
      ],
      "name": "tokenURI",
      "outputs": [
        {
          "internalType": "string",
          "name": "",
          "type": "string"
        }
      ],
      "stateMutability": "view",
      "type": "function"
    },
    {
      "inputs": [],
      "name": "totalFeesCollected",
      "outputs": [
        {
          "internalType": "uint256",
          "name": "",
          "type": "uint256"
        }
      ],
      "stateMutability": "view",
      "type": "function"
    },
    {
      "inputs": [],
      "name": "totalSupply",
      "outputs": [
        {
          "internalType": "uint256",
          "name": "",
          "type": "uint256"
        }
      ],
      "stateMutability": "view",
      "type": "function"
    },
    {
      "inputs": [
        {
          "internalType": "address",
          "name": "from",
          "type": "address"
        },
        {
          "internalType": "address",
          "name": "to",
          "type": "address"
        },
        {
          "internalType": "uint256",
          "name": "tokenId",
          "type": "uint256"
        }
      ],
      "name": "transferFrom",
      "outputs": [],
      "stateMutability": "nonpayable",
      "type": "function"
    },
    {
      "inputs": [
        {
          "internalType": "address",
          "name": "newOwner",
          "type": "address"
        }
      ],
      "name": "transferOwnership",
      "outputs": [],
      "stateMutability": "nonpayable",
      "type": "function"
    }
  ],
  "bytecode": "0x608060405260006009556002600a556000600b553480156200002057600080fd5b506040518060400160405280600981526020017f4275794d79526f6f6d00000000000000000000000000000000000000000000008152506040518060400160405280600381526020017f424d52000000000000000000000000000000000000000000000000000000000081525081600090816200009e9190620003f9565b508060019081620000b09190620003f9565b50505033600860006101000a81548173ffffffffffffffffffffffffffffffffffffffff021916908373ffffffffffffffffffffffffffffffffffffffff160217905550604051620001029062000171565b6200010d9062000591565b604051809103906000f0801580156200012a573d6000803e3d6000fd5b50600c60006101000a81548173ffffffffffffffffffffffffffffffffffffffff021916908373ffffffffffffffffffffffffffffffffffffffff160217905550620005c8565b6118098062003dee83390190565b600081519050919050565b7f4e487b7100000000000000000000000000000000000000000000000000000000600052604160045260246000fd5b7f4e487b7100000000000000000000000000000000000000000000000000000000600052602260045260246000fd5b600060028204905060018216806200020157607f821691505b602082108103620002175762000216620001b9565b5b50919050565b60008190508160005260206000209050919050565b60006020601f8301049050919050565b600082821b905092915050565b600060088302620002817fffffffffffffffffffffffffffffffffffffffffffffffffffffffffffffffff8262000242565b6200028d868362000242565b95508019841693508086168417925050509392505050565b6000819050919050565b6000819050919050565b6000620002da620002d4620002ce84620002a5565b620002af565b620002a5565b9050919050565b6000819050919050565b620002f683620002b9565b6200030e6200030582620002e1565b8484546200024f565b825550505050565b600090565b6200032562000316565b62000332818484620002eb565b505050565b5b818110156200035a576200034e6000826200031b565b60018101905062000338565b5050565b601f821115620003a95762000373816200021d565b6200037e8462000232565b810160208510156200038e578190505b620003a66200039d8562000232565b83018262000337565b50505b505050565b600082821c905092915050565b6000620003ce60001984600802620003ae565b1980831691505092915050565b6000620003e98383620003bb565b9150826002028217905092915050565b62000404826200017f565b67ffffffffffffffff81111562000420576200041f6200018a565b5b6200042c8254620001e8565b620004398282856200035e565b600060209050601f8311600181146200047157600084156200045c578287015190505b620004688582620003db565b865550620004d8565b601f19841662000481866200021d565b60005b82811015620004ab5784890151825560018201915060208501945060208101905062000484565b86831015620004cb5784890151620004c7601f891682620003bb565b8355505b6001600288020188555050505b505050505050565b600082825260208201905092915050565b7f5a4a55546f6b656e000000000000000000000000000000000000000000000000600082015250565b600062000529600883620004e0565b91506200053682620004f1565b602082019050919050565b7f5a4a55546f6b656e53796d626f6c000000000000000000000000000000000000600082015250565b600062000579600e83620004e0565b9150620005868262000541565b602082019050919050565b60006040820190508181036000830152620005ac816200051a565b90508181036020830152620005c1816200056a565b9050919050565b61381680620005d86000396000f3fe6080604052600436106101cc5760003560e01c806395d89b41116100f7578063b88d4fde11610095578063e985e9c511610064578063e985e9c514610684578063eddc4269146106c1578063f2fde38b146106dd578063f70fe0c614610706576101cc565b8063b88d4fde146105e9578063c87b56dd14610612578063ce606ee01461064f578063d0febe4c1461067a576101cc565b8063a22cb465116100d1578063a22cb46514610517578063a3405f3914610540578063ad50f56d1461056b578063aeda852f146105a8576101cc565b806395d89b411461049857806399b23178146104c3578063a001ecdd146104ec576101cc565b80632f2f48591161016f57806360c6d8ae1161013e57806360c6d8ae146103c85780636352211e146103f35780636dff132e1461043057806370a082311461045b576101cc565b80632f2f48591461031e57806336be2f5d1461034957806342842e0e14610374578063468765081461039d576101cc565b8063081812fc116101ab578063081812fc14610264578063095ea7b3146102a157806318160ddd146102ca57806323b872dd146102f5576101cc565b80629a9b7b146101d157806301ffc9a7146101fc57806306fdde0314610239575b600080fd5b3480156101dd57600080fd5b506101e661071d565b6040516101f3919061280e565b60405180910390f35b34801561020857600080fd5b50610223600480360381019061021e9190612895565b610723565b60405161023091906128dd565b60405180910390f35b34801561024557600080fd5b5061024e610805565b60405161025b9190612988565b60405180910390f35b34801561027057600080fd5b5061028b600480360381019061028691906129d6565b610897565b6040516102989190612a44565b60405180910390f35b3480156102ad57600080fd5b506102c860048036038101906102c39190612a8b565b6108b3565b005b3480156102d657600080fd5b506102df6108c9565b6040516102ec919061280e565b60405180910390f35b34801561030157600080fd5b5061031c60048036038101906103179190612acb565b6108d3565b005b34801561032a57600080fd5b506103336109d5565b6040516103409190612988565b60405180910390f35b34801561035557600080fd5b5061035e610a12565b60405161036b9190612c62565b60405180910390f35b34801561038057600080fd5b5061039b60048036038101906103969190612acb565b610bf4565b005b3480156103a957600080fd5b506103b2610c14565b6040516103bf919061280e565b60405180910390f35b3480156103d457600080fd5b506103dd610c1e565b6040516103ea919061280e565b60405180910390f35b3480156103ff57600080fd5b5061041a600480360381019061041591906129d6565b610c24565b6040516104279190612a44565b60405180910390f35b34801561043c57600080fd5b50610445610c36565b6040516104529190612ce3565b60405180910390f35b34801561046757600080fd5b50610482600480360381019061047d9190612cfe565b610c5c565b60405161048f919061280e565b60405180910390f35b3480156104a457600080fd5b506104ad610d16565b6040516104ba9190612988565b60405180910390f35b3480156104cf57600080fd5b506104ea60048036038101906104e59190612d2b565b610da8565b005b3480156104f857600080fd5b50610501610e8f565b60405161050e919061280e565b60405180910390f35b34801561052357600080fd5b5061053e60048036038101906105399190612d97565b610e95565b005b34801561054c57600080fd5b50610555610eab565b604051610562919061280e565b60405180910390f35b34801561057757600080fd5b50610592600480360381019061058d91906129d6565b610f4e565b60405161059f9190612e3f565b60405180910390f35b3480156105b457600080fd5b506105cf60048036038101906105ca91906129d6565b61100a565b6040516105e0959493929190612e5a565b60405180910390f35b3480156105f557600080fd5b50610610600480360381019061060b9190612fe2565b61106d565b005b34801561061e57600080fd5b50610639600480360381019061063491906129d6565b61108a565b6040516106469190612988565b60405180910390f35b34801561065b57600080fd5b506106646110f3565b6040516106719190612a44565b60405180910390f35b610682611119565b005b34801561069057600080fd5b506106ab60048036038101906106a69190613065565b6111f3565b6040516106b891906128dd565b60405180910390f35b6106db60048036038101906106d691906129d6565b611287565b005b3480156106e957600080fd5b5061070460048036038101906106ff9190612cfe565b611577565b005b34801561071257600080fd5b5061071b6116ba565b005b60095481565b60007f80ac58cd000000000000000000000000000000000000000000000000000000007bffffffffffffffffffffffffffffffffffffffffffffffffffffffff1916827bffffffffffffffffffffffffffffffffffffffffffffffffffffffff191614806107ee57507f5b5e139f000000000000000000000000000000000000000000000000000000007bffffffffffffffffffffffffffffffffffffffffffffffffffffffff1916827bffffffffffffffffffffffffffffffffffffffffffffffffffffffff1916145b806107fe57506107fd82611900565b5b9050919050565b606060008054610814906130d4565b80601f0160208091040260200160405190810160405280929190818152602001828054610840906130d4565b801561088d5780601f106108625761010080835404028352916020019161088d565b820191906000526020600020905b81548152906001019060200180831161087057829003601f168201915b5050505050905090565b60006108a28261196a565b506108ac826119f2565b9050919050565b6108c582826108c0611a2f565b611a37565b5050565b6000600954905090565b600073ffffffffffffffffffffffffffffffffffffffff168273ffffffffffffffffffffffffffffffffffffffff16036109455760006040517f64a0ae9200000000000000000000000000000000000000000000000000000000815260040161093c9190612a44565b60405180910390fd5b60006109598383610954611a2f565b611a49565b90508373ffffffffffffffffffffffffffffffffffffffff168173ffffffffffffffffffffffffffffffffffffffff16146109cf578382826040517f64283d7b0000000000000000000000000000000000000000000000000000000081526004016109c693929190613105565b60405180910390fd5b50505050565b60606040518060400160405280600b81526020017f68656c6c6f20776f726c64000000000000000000000000000000000000000000815250905090565b60606000805b600954811015610a6d576006600082815260200190815260200160002060030160009054906101000a900460ff1615610a5a578180610a569061316b565b9250505b8080610a659061316b565b915050610a18565b5060008167ffffffffffffffff811115610a8a57610a89612eb7565b5b604051908082528060200260200182016040528015610ac357816020015b610ab06127ae565b815260200190600190039081610aa85790505b5090506000805b600954811015610bea576006600082815260200190815260200160002060030160009054906101000a900460ff1615610bd757600660008281526020019081526020016000206040518060a0016040529081600082015481526020016001820160009054906101000a900473ffffffffffffffffffffffffffffffffffffffff1673ffffffffffffffffffffffffffffffffffffffff1673ffffffffffffffffffffffffffffffffffffffff168152602001600282015481526020016003820160009054906101000a900460ff16151515158152602001600482015481525050838381518110610bbd57610bbc6131b3565b5b60200260200101819052508180610bd39061316b565b9250505b8080610be29061316b565b915050610aca565b5081935050505090565b610c0f8383836040518060200160405280600081525061106d565b505050565b6000600b54905090565b600b5481565b6000610c2f8261196a565b9050919050565b600c60009054906101000a900473ffffffffffffffffffffffffffffffffffffffff1681565b60008073ffffffffffffffffffffffffffffffffffffffff168273ffffffffffffffffffffffffffffffffffffffff1603610ccf5760006040517f89c62b64000000000000000000000000000000000000000000000000000000008152600401610cc69190612a44565b60405180910390fd5b600360008373ffffffffffffffffffffffffffffffffffffffff1673ffffffffffffffffffffffffffffffffffffffff168152602001908152602001600020549050919050565b606060018054610d25906130d4565b80601f0160208091040260200160405190810160405280929190818152602001828054610d51906130d4565b8015610d9e5780601f10610d7357610100808354040283529160200191610d9e565b820191906000526020600020905b815481529060010190602001808311610d8157829003601f168201915b5050505050905090565b60008111610deb576040517f08c379a0000000000000000000000000000000000000000000000000000000008152600401610de29061322e565b60405180910390fd5b60016006600084815260200190815260200160002060030160006101000a81548160ff0219169083151502179055508060066000848152602001908152602001600020600401819055504260066000848152602001908152602001600020600201819055507f60b3e540896cf4a419e7b7274a1f1282223f5d92ca6f0152cf820fe457fb4843828233604051610e839392919061324e565b60405180910390a15050565b600a5481565b610ea7610ea0611a2f565b8383611c63565b5050565b6000600c60009054906101000a900473ffffffffffffffffffffffffffffffffffffffff1673ffffffffffffffffffffffffffffffffffffffff166370a08231336040518263ffffffff1660e01b8152600401610f089190612a44565b602060405180830381865afa158015610f25573d6000803e3d6000fd5b505050506040513d601f19601f82011682018060405250810190610f49919061329a565b905090565b610f566127ae565b600660008381526020019081526020016000206040518060a0016040529081600082015481526020016001820160009054906101000a900473ffffffffffffffffffffffffffffffffffffffff1673ffffffffffffffffffffffffffffffffffffffff1673ffffffffffffffffffffffffffffffffffffffff168152602001600282015481526020016003820160009054906101000a900460ff161515151581526020016004820154815250509050919050565b60066020528060005260406000206000915090508060000154908060010160009054906101000a900473ffffffffffffffffffffffffffffffffffffffff16908060020154908060030160009054906101000a900460ff16908060040154905085565b6110788484846108d3565b61108484848484611dd2565b50505050565b60606110958261196a565b5060006110a0611f89565b905060008151116110c057604051806020016040528060008152506110eb565b806110ca84611fa0565b6040516020016110db929190613303565b6040516020818303038152906040525b915050919050565b600860009054906101000a900473ffffffffffffffffffffffffffffffffffffffff1681565b6000341161115c576040517f08c379a000000000000000000000000000000000000000000000000000000000815260040161115390613373565b60405180910390fd5b6000349050600c60009054906101000a900473ffffffffffffffffffffffffffffffffffffffff1673ffffffffffffffffffffffffffffffffffffffff166340c10f1933836040518363ffffffff1660e01b81526004016111be929190613393565b600060405180830381600087803b1580156111d857600080fd5b505af11580156111ec573d6000803e3d6000fd5b5050505050565b6000600560008473ffffffffffffffffffffffffffffffffffffffff1673ffffffffffffffffffffffffffffffffffffffff16815260200190815260200160002060008373ffffffffffffffffffffffffffffffffffffffff1673ffffffffffffffffffffffffffffffffffffffff16815260200190815260200160002060009054906101000a900460ff16905092915050565b6000600660008381526020019081526020016000206040518060a0016040529081600082015481526020016001820160009054906101000a900473ffffffffffffffffffffffffffffffffffffffff1673ffffffffffffffffffffffffffffffffffffffff1673ffffffffffffffffffffffffffffffffffffffff168152602001600282015481526020016003820160009054906101000a900460ff161515151581526020016004820154815250509050806060015161137c576040517f08c379a000000000000000000000000000000000000000000000000000000000815260040161137390613408565b60405180910390fd5b80608001513410156113c3576040517f08c379a00000000000000000000000000000000000000000000000000000000081526004016113ba90613474565b60405180910390fd5b60006064600a54346113d59190613494565b6113df9190613505565b9050600860009054906101000a900473ffffffffffffffffffffffffffffffffffffffff1673ffffffffffffffffffffffffffffffffffffffff166108fc829081150290604051600060405180830381858888f19350505050158015611449573d6000803e3d6000fd5b50816020015173ffffffffffffffffffffffffffffffffffffffff166108fc82346114749190613536565b9081150290604051600060405180830381858888f1935050505015801561149f573d6000803e3d6000fd5b506114af8260200151338561206e565b336006600085815260200190815260200160002060010160006101000a81548173ffffffffffffffffffffffffffffffffffffffff021916908373ffffffffffffffffffffffffffffffffffffffff16021790555060006006600085815260200190815260200160002060030160006101000a81548160ff0219169083151502179055507fb6e6b0aa920ed5fbb8dd058bbd321e9b2b8780062b0dd9bc84019b47706f73ab8383608001513360405161156a9392919061324e565b60405180910390a1505050565b600860009054906101000a900473ffffffffffffffffffffffffffffffffffffffff1673ffffffffffffffffffffffffffffffffffffffff163373ffffffffffffffffffffffffffffffffffffffff1614611607576040517f08c379a00000000000000000000000000000000000000000000000000000000081526004016115fe906135b6565b60405180910390fd5b600073ffffffffffffffffffffffffffffffffffffffff168173ffffffffffffffffffffffffffffffffffffffff1603611676576040517f08c379a000000000000000000000000000000000000000000000000000000000815260040161166d90613622565b60405180910390fd5b80600860006101000a81548173ffffffffffffffffffffffffffffffffffffffff021916908373ffffffffffffffffffffffffffffffffffffffff16021790555050565b600760003373ffffffffffffffffffffffffffffffffffffffff1673ffffffffffffffffffffffffffffffffffffffff16815260200190815260200160002060009054906101000a900460ff1615611747576040517f08c379a000000000000000000000000000000000000000000000000000000000815260040161173e906136b4565b60405180910390fd5b60005b60038110156118a55761175f336009546121db565b6040518060a0016040528060095481526020013373ffffffffffffffffffffffffffffffffffffffff16815260200142815260200160001515815260200160008152506006600060095481526020019081526020016000206000820151816000015560208201518160010160006101000a81548173ffffffffffffffffffffffffffffffffffffffff021916908373ffffffffffffffffffffffffffffffffffffffff1602179055506040820151816002015560608201518160030160006101000a81548160ff02191690831515021790555060808201518160040155905050600960008154809291906118529061316b565b91905055507f217b893362c1b98b2fa47a82415d41f6715473e7b902ea5659add191927554da6009543360405161188a9291906136d4565b60405180910390a1808061189d9061316b565b91505061174a565b506001600760003373ffffffffffffffffffffffffffffffffffffffff1673ffffffffffffffffffffffffffffffffffffffff16815260200190815260200160002060006101000a81548160ff021916908315150217905550565b60007f01ffc9a7000000000000000000000000000000000000000000000000000000007bffffffffffffffffffffffffffffffffffffffffffffffffffffffff1916827bffffffffffffffffffffffffffffffffffffffffffffffffffffffff1916149050919050565b600080611976836122d4565b9050600073ffffffffffffffffffffffffffffffffffffffff168173ffffffffffffffffffffffffffffffffffffffff16036119e957826040517f7e2732890000000000000000000000000000000000000000000000000000000081526004016119e0919061280e565b60405180910390fd5b80915050919050565b60006004600083815260200190815260200160002060009054906101000a900473ffffffffffffffffffffffffffffffffffffffff169050919050565b600033905090565b611a448383836001612311565b505050565b600080611a55846122d4565b9050600073ffffffffffffffffffffffffffffffffffffffff168373ffffffffffffffffffffffffffffffffffffffff1614611a9757611a968184866124d6565b5b600073ffffffffffffffffffffffffffffffffffffffff168173ffffffffffffffffffffffffffffffffffffffff1614611b2857611ad9600085600080612311565b6001600360008373ffffffffffffffffffffffffffffffffffffffff1673ffffffffffffffffffffffffffffffffffffffff168152602001908152602001600020600082825403925050819055505b600073ffffffffffffffffffffffffffffffffffffffff168573ffffffffffffffffffffffffffffffffffffffff1614611bab576001600360008773ffffffffffffffffffffffffffffffffffffffff1673ffffffffffffffffffffffffffffffffffffffff168152602001908152602001600020600082825401925050819055505b846002600086815260200190815260200160002060006101000a81548173ffffffffffffffffffffffffffffffffffffffff021916908373ffffffffffffffffffffffffffffffffffffffff160217905550838573ffffffffffffffffffffffffffffffffffffffff168273ffffffffffffffffffffffffffffffffffffffff167fddf252ad1be2c89b69c2b068fc378daa952ba7f163c4a11628f55a4df523b3ef60405160405180910390a4809150509392505050565b600073ffffffffffffffffffffffffffffffffffffffff168273ffffffffffffffffffffffffffffffffffffffff1603611cd457816040517f5b08ba18000000000000000000000000000000000000000000000000000000008152600401611ccb9190612a44565b60405180910390fd5b80600560008573ffffffffffffffffffffffffffffffffffffffff1673ffffffffffffffffffffffffffffffffffffffff16815260200190815260200160002060008473ffffffffffffffffffffffffffffffffffffffff1673ffffffffffffffffffffffffffffffffffffffff16815260200190815260200160002060006101000a81548160ff0219169083151502179055508173ffffffffffffffffffffffffffffffffffffffff168373ffffffffffffffffffffffffffffffffffffffff167f17307eab39ab6107e8899845ad3d59bd9653f200f220920489ca2b5937696c3183604051611dc591906128dd565b60405180910390a3505050565b60008373ffffffffffffffffffffffffffffffffffffffff163b1115611f83578273ffffffffffffffffffffffffffffffffffffffff1663150b7a02611e16611a2f565b8685856040518563ffffffff1660e01b8152600401611e389493929190613752565b6020604051808303816000875af1925050508015611e7457506040513d601f19601f82011682018060405250810190611e7191906137b3565b60015b611ef8573d8060008114611ea4576040519150601f19603f3d011682016040523d82523d6000602084013e611ea9565b606091505b506000815103611ef057836040517f64a0ae92000000000000000000000000000000000000000000000000000000008152600401611ee79190612a44565b60405180910390fd5b805181602001fd5b63150b7a0260e01b7bffffffffffffffffffffffffffffffffffffffffffffffffffffffff1916817bffffffffffffffffffffffffffffffffffffffffffffffffffffffff191614611f8157836040517f64a0ae92000000000000000000000000000000000000000000000000000000008152600401611f789190612a44565b60405180910390fd5b505b50505050565b606060405180602001604052806000815250905090565b606060006001611faf8461259a565b01905060008167ffffffffffffffff811115611fce57611fcd612eb7565b5b6040519080825280601f01601f1916602001820160405280156120005781602001600182028036833780820191505090505b509050600082602001820190505b600115612063578080600190039150507f3031323334353637383961626364656600000000000000000000000000000000600a86061a8153600a8581612057576120566134d6565b5b0494506000850361200e575b819350505050919050565b600073ffffffffffffffffffffffffffffffffffffffff168273ffffffffffffffffffffffffffffffffffffffff16036120e05760006040517f64a0ae920000000000000000000000000000000000000000000000000000000081526004016120d79190612a44565b60405180910390fd5b60006120ee83836000611a49565b9050600073ffffffffffffffffffffffffffffffffffffffff168173ffffffffffffffffffffffffffffffffffffffff160361216157816040517f7e273289000000000000000000000000000000000000000000000000000000008152600401612158919061280e565b60405180910390fd5b8373ffffffffffffffffffffffffffffffffffffffff168173ffffffffffffffffffffffffffffffffffffffff16146121d5578382826040517f64283d7b0000000000000000000000000000000000000000000000000000000081526004016121cc93929190613105565b60405180910390fd5b50505050565b600073ffffffffffffffffffffffffffffffffffffffff168273ffffffffffffffffffffffffffffffffffffffff160361224d5760006040517f64a0ae920000000000000000000000000000000000000000000000000000000081526004016122449190612a44565b60405180910390fd5b600061225b83836000611a49565b9050600073ffffffffffffffffffffffffffffffffffffffff168173ffffffffffffffffffffffffffffffffffffffff16146122cf5760006040517f73c6ac6e0000000000000000000000000000000000000000000000000000000081526004016122c69190612a44565b60405180910390fd5b505050565b60006002600083815260200190815260200160002060009054906101000a900473ffffffffffffffffffffffffffffffffffffffff169050919050565b808061234a5750600073ffffffffffffffffffffffffffffffffffffffff168273ffffffffffffffffffffffffffffffffffffffff1614155b1561247e57600061235a8461196a565b9050600073ffffffffffffffffffffffffffffffffffffffff168373ffffffffffffffffffffffffffffffffffffffff16141580156123c557508273ffffffffffffffffffffffffffffffffffffffff168173ffffffffffffffffffffffffffffffffffffffff1614155b80156123d857506123d681846111f3565b155b1561241a57826040517fa9fbf51f0000000000000000000000000000000000000000000000000000000081526004016124119190612a44565b60405180910390fd5b811561247c57838573ffffffffffffffffffffffffffffffffffffffff168273ffffffffffffffffffffffffffffffffffffffff167f8c5be1e5ebec7d5bd14f71427d1e84f3dd0314c0f7b2291e5b200ac8c7c3b92560405160405180910390a45b505b836004600085815260200190815260200160002060006101000a81548173ffffffffffffffffffffffffffffffffffffffff021916908373ffffffffffffffffffffffffffffffffffffffff16021790555050505050565b6124e18383836126ed565b61259557600073ffffffffffffffffffffffffffffffffffffffff168373ffffffffffffffffffffffffffffffffffffffff160361255657806040517f7e27328900000000000000000000000000000000000000000000000000000000815260040161254d919061280e565b60405180910390fd5b81816040517f177e802f00000000000000000000000000000000000000000000000000000000815260040161258c929190613393565b60405180910390fd5b505050565b600080600090507a184f03e93ff9f4daa797ed6e38ed64bf6a1f01000000000000000083106125f8577a184f03e93ff9f4daa797ed6e38ed64bf6a1f01000000000000000083816125ee576125ed6134d6565b5b0492506040810190505b6d04ee2d6d415b85acef81000000008310612635576d04ee2d6d415b85acef8100000000838161262b5761262a6134d6565b5b0492506020810190505b662386f26fc10000831061266457662386f26fc10000838161265a576126596134d6565b5b0492506010810190505b6305f5e100831061268d576305f5e1008381612683576126826134d6565b5b0492506008810190505b61271083106126b25761271083816126a8576126a76134d6565b5b0492506004810190505b606483106126d557606483816126cb576126ca6134d6565b5b0492506002810190505b600a83106126e4576001810190505b80915050919050565b60008073ffffffffffffffffffffffffffffffffffffffff168373ffffffffffffffffffffffffffffffffffffffff16141580156127a557508273ffffffffffffffffffffffffffffffffffffffff168473ffffffffffffffffffffffffffffffffffffffff161480612766575061276584846111f3565b5b806127a457508273ffffffffffffffffffffffffffffffffffffffff1661278c836119f2565b73ffffffffffffffffffffffffffffffffffffffff16145b5b90509392505050565b6040518060a0016040528060008152602001600073ffffffffffffffffffffffffffffffffffffffff16815260200160008152602001600015158152602001600081525090565b6000819050919050565b612808816127f5565b82525050565b600060208201905061282360008301846127ff565b92915050565b6000604051905090565b600080fd5b600080fd5b60007fffffffff0000000000000000000000000000000000000000000000000000000082169050919050565b6128728161283d565b811461287d57600080fd5b50565b60008135905061288f81612869565b92915050565b6000602082840312156128ab576128aa612833565b5b60006128b984828501612880565b91505092915050565b60008115159050919050565b6128d7816128c2565b82525050565b60006020820190506128f260008301846128ce565b92915050565b600081519050919050565b600082825260208201905092915050565b60005b83811015612932578082015181840152602081019050612917565b60008484015250505050565b6000601f19601f8301169050919050565b600061295a826128f8565b6129648185612903565b9350612974818560208601612914565b61297d8161293e565b840191505092915050565b600060208201905081810360008301526129a2818461294f565b905092915050565b6129b3816127f5565b81146129be57600080fd5b50565b6000813590506129d0816129aa565b92915050565b6000602082840312156129ec576129eb612833565b5b60006129fa848285016129c1565b91505092915050565b600073ffffffffffffffffffffffffffffffffffffffff82169050919050565b6000612a2e82612a03565b9050919050565b612a3e81612a23565b82525050565b6000602082019050612a596000830184612a35565b92915050565b612a6881612a23565b8114612a7357600080fd5b50565b600081359050612a8581612a5f565b92915050565b60008060408385031215612aa257612aa1612833565b5b6000612ab085828601612a76565b9250506020612ac1858286016129c1565b9150509250929050565b600080600060608486031215612ae457612ae3612833565b5b6000612af286828701612a76565b9350506020612b0386828701612a76565b9250506040612b14868287016129c1565b9150509250925092565b600081519050919050565b600082825260208201905092915050565b6000819050602082019050919050565b612b53816127f5565b82525050565b612b6281612a23565b82525050565b612b71816128c2565b82525050565b60a082016000820151612b8d6000850182612b4a565b506020820151612ba06020850182612b59565b506040820151612bb36040850182612b4a565b506060820151612bc66060850182612b68565b506080820151612bd96080850182612b4a565b50505050565b6000612beb8383612b77565b60a08301905092915050565b6000602082019050919050565b6000612c0f82612b1e565b612c198185612b29565b9350612c2483612b3a565b8060005b83811015612c55578151612c3c8882612bdf565b9750612c4783612bf7565b925050600181019050612c28565b5085935050505092915050565b60006020820190508181036000830152612c7c8184612c04565b905092915050565b6000819050919050565b6000612ca9612ca4612c9f84612a03565b612c84565b612a03565b9050919050565b6000612cbb82612c8e565b9050919050565b6000612ccd82612cb0565b9050919050565b612cdd81612cc2565b82525050565b6000602082019050612cf86000830184612cd4565b92915050565b600060208284031215612d1457612d13612833565b5b6000612d2284828501612a76565b91505092915050565b60008060408385031215612d4257612d41612833565b5b6000612d50858286016129c1565b9250506020612d61858286016129c1565b9150509250929050565b612d74816128c2565b8114612d7f57600080fd5b50565b600081359050612d9181612d6b565b92915050565b60008060408385031215612dae57612dad612833565b5b6000612dbc85828601612a76565b9250506020612dcd85828601612d82565b9150509250929050565b60a082016000820151612ded6000850182612b4a565b506020820151612e006020850182612b59565b506040820151612e136040850182612b4a565b506060820151612e266060850182612b68565b506080820151612e396080850182612b4a565b50505050565b600060a082019050612e546000830184612dd7565b92915050565b600060a082019050612e6f60008301886127ff565b612e7c6020830187612a35565b612e8960408301866127ff565b612e9660608301856128ce565b612ea360808301846127ff565b9695505050505050565b600080fd5b600080fd5b7f4e487b7100000000000000000000000000000000000000000000000000000000600052604160045260246000fd5b612eef8261293e565b810181811067ffffffffffffffff82111715612f0e57612f0d612eb7565b5b80604052505050565b6000612f21612829565b9050612f2d8282612ee6565b919050565b600067ffffffffffffffff821115612f4d57612f4c612eb7565b5b612f568261293e565b9050602081019050919050565b82818337600083830152505050565b6000612f85612f8084612f32565b612f17565b905082815260208101848484011115612fa157612fa0612eb2565b5b612fac848285612f63565b509392505050565b600082601f830112612fc957612fc8612ead565b5b8135612fd9848260208601612f72565b91505092915050565b60008060008060808587031215612ffc57612ffb612833565b5b600061300a87828801612a76565b945050602061301b87828801612a76565b935050604061302c878288016129c1565b925050606085013567ffffffffffffffff81111561304d5761304c612838565b5b61305987828801612fb4565b91505092959194509250565b6000806040838503121561307c5761307b612833565b5b600061308a85828601612a76565b925050602061309b85828601612a76565b9150509250929050565b7f4e487b7100000000000000000000000000000000000000000000000000000000600052602260045260246000fd5b600060028204905060018216806130ec57607f821691505b6020821081036130ff576130fe6130a5565b5b50919050565b600060608201905061311a6000830186612a35565b61312760208301856127ff565b6131346040830184612a35565b949350505050565b7f4e487b7100000000000000000000000000000000000000000000000000000000600052601160045260246000fd5b6000613176826127f5565b91507fffffffffffffffffffffffffffffffffffffffffffffffffffffffffffffffff82036131a8576131a761313c565b5b600182019050919050565b7f4e487b7100000000000000000000000000000000000000000000000000000000600052603260045260246000fd5b7f5072696365206d7573742062652067726561746572207468616e207a65726f00600082015250565b6000613218601f83612903565b9150613223826131e2565b602082019050919050565b600060208201905081810360008301526132478161320b565b9050919050565b600060608201905061326360008301866127ff565b61327060208301856127ff565b61327d6040830184612a35565b949350505050565b600081519050613294816129aa565b92915050565b6000602082840312156132b0576132af612833565b5b60006132be84828501613285565b91505092915050565b600081905092915050565b60006132dd826128f8565b6132e781856132c7565b93506132f7818560208601612914565b80840191505092915050565b600061330f82856132d2565b915061331b82846132d2565b91508190509392505050565b7f4d7573742073656e642045544820746f2062757920746f6b656e730000000000600082015250565b600061335d601b83612903565b915061336882613327565b602082019050919050565b6000602082019050818103600083015261338c81613350565b9050919050565b60006040820190506133a86000830185612a35565b6133b560208301846127ff565b9392505050565b7f486f757365206973206e6f7420666f722073616c650000000000000000000000600082015250565b60006133f2601583612903565b91506133fd826133bc565b602082019050919050565b60006020820190508181036000830152613421816133e5565b9050919050565b7f496e73756666696369656e742066756e64730000000000000000000000000000600082015250565b600061345e601283612903565b915061346982613428565b602082019050919050565b6000602082019050818103600083015261348d81613451565b9050919050565b600061349f826127f5565b91506134aa836127f5565b92508282026134b8816127f5565b915082820484148315176134cf576134ce61313c565b5b5092915050565b7f4e487b7100000000000000000000000000000000000000000000000000000000600052601260045260246000fd5b6000613510826127f5565b915061351b836127f5565b92508261352b5761352a6134d6565b5b828204905092915050565b6000613541826127f5565b915061354c836127f5565b92508282039050818111156135645761356361313c565b5b92915050565b7f4e6f742074686520636f6e7472616374206f776e657200000000000000000000600082015250565b60006135a0601683612903565b91506135ab8261356a565b602082019050919050565b600060208201905081810360008301526135cf81613593565b9050919050565b7f4e6577206f776e657220697320746865207a65726f2061646472657373000000600082015250565b600061360c601d83612903565b9150613617826135d6565b602082019050919050565b6000602082019050818103600083015261363b816135ff565b9050919050565b7f5468697320757365722068617320636c61696d65642061697264726f7020616c60008201527f7265616479000000000000000000000000000000000000000000000000000000602082015250565b600061369e602583612903565b91506136a982613642565b604082019050919050565b600060208201905081810360008301526136cd81613691565b9050919050565b60006040820190506136e960008301856127ff565b6136f66020830184612a35565b9392505050565b600081519050919050565b600082825260208201905092915050565b6000613724826136fd565b61372e8185613708565b935061373e818560208601612914565b6137478161293e565b840191505092915050565b60006080820190506137676000830187612a35565b6137746020830186612a35565b61378160408301856127ff565b81810360608301526137938184613719565b905095945050505050565b6000815190506137ad81612869565b92915050565b6000602082840312156137c9576137c8612833565b5b60006137d78482850161379e565b9150509291505056fea26469706673582212200afc4c0c15a254be7b7ed036a550a16164feca806987f522370ba175cfbe0a5c64736f6c6343000814003360806040523480156200001157600080fd5b50604051620018093803806200180983398181016040528101906200003791906200023b565b818181600390816200004a91906200050b565b5080600490816200005c91906200050b565b50505033600560006101000a81548173ffffffffffffffffffffffffffffffffffffffff021916908373ffffffffffffffffffffffffffffffffffffffff1602179055505050620005f2565b6000604051905090565b600080fd5b600080fd5b600080fd5b600080fd5b6000601f19601f8301169050919050565b7f4e487b7100000000000000000000000000000000000000000000000000000000600052604160045260246000fd5b6200011182620000c6565b810181811067ffffffffffffffff82111715620001335762000132620000d7565b5b80604052505050565b600062000148620000a8565b905062000156828262000106565b919050565b600067ffffffffffffffff821115620001795762000178620000d7565b5b6200018482620000c6565b9050602081019050919050565b60005b83811015620001b157808201518184015260208101905062000194565b60008484015250505050565b6000620001d4620001ce846200015b565b6200013c565b905082815260208101848484011115620001f357620001f2620000c1565b5b6200020084828562000191565b509392505050565b600082601f83011262000220576200021f620000bc565b5b815162000232848260208601620001bd565b91505092915050565b60008060408385031215620002555762000254620000b2565b5b600083015167ffffffffffffffff811115620002765762000275620000b7565b5b620002848582860162000208565b925050602083015167ffffffffffffffff811115620002a857620002a7620000b7565b5b620002b68582860162000208565b9150509250929050565b600081519050919050565b7f4e487b7100000000000000000000000000000000000000000000000000000000600052602260045260246000fd5b600060028204905060018216806200031357607f821691505b602082108103620003295762000328620002cb565b5b50919050565b60008190508160005260206000209050919050565b60006020601f8301049050919050565b600082821b905092915050565b600060088302620003937fffffffffffffffffffffffffffffffffffffffffffffffffffffffffffffffff8262000354565b6200039f868362000354565b95508019841693508086168417925050509392505050565b6000819050919050565b6000819050919050565b6000620003ec620003e6620003e084620003b7565b620003c1565b620003b7565b9050919050565b6000819050919050565b6200040883620003cb565b620004206200041782620003f3565b84845462000361565b825550505050565b600090565b6200043762000428565b62000444818484620003fd565b505050565b5b818110156200046c57620004606000826200042d565b6001810190506200044a565b5050565b601f821115620004bb5762000485816200032f565b620004908462000344565b81016020851015620004a0578190505b620004b8620004af8562000344565b83018262000449565b50505b505050565b600082821c905092915050565b6000620004e060001984600802620004c0565b1980831691505092915050565b6000620004fb8383620004cd565b9150826002028217905092915050565b6200051682620002c0565b67ffffffffffffffff811115620005325762000531620000d7565b5b6200053e8254620002fa565b6200054b82828562000470565b600060209050601f8311600181146200058357600084156200056e578287015190505b6200057a8582620004ed565b865550620005ea565b601f19841662000593866200032f565b60005b82811015620005bd5784890151825560018201915060208501945060208101905062000596565b86831015620005dd5784890151620005d9601f891682620004cd565b8355505b6001600288020188555050505b505050505050565b61120780620006026000396000f3fe608060405234801561001057600080fd5b50600436106100a95760003560e01c806340c10f191161007157806340c10f191461016857806370a08231146101845780638da5cb5b146101b457806395d89b41146101d2578063a9059cbb146101f0578063dd62ed3e14610220576100a9565b806306fdde03146100ae578063095ea7b3146100cc57806318160ddd146100fc57806323b872dd1461011a578063313ce5671461014a575b600080fd5b6100b6610250565b6040516100c39190610cf1565b60405180910390f35b6100e660048036038101906100e19190610dac565b6102e2565b6040516100f39190610e07565b60405180910390f35b610104610305565b6040516101119190610e31565b60405180910390f35b610134600480360381019061012f9190610e4c565b61030f565b6040516101419190610e07565b60405180910390f35b61015261033e565b60405161015f9190610ebb565b60405180910390f35b610182600480360381019061017d9190610dac565b610347565b005b61019e60048036038101906101999190610ed6565b610497565b6040516101ab9190610e31565b60405180910390f35b6101bc6104df565b6040516101c99190610f12565b60405180910390f35b6101da610505565b6040516101e79190610cf1565b60405180910390f35b61020a60048036038101906102059190610dac565b610597565b6040516102179190610e07565b60405180910390f35b61023a60048036038101906102359190610f2d565b6105ba565b6040516102479190610e31565b60405180910390f35b60606003805461025f90610f9c565b80601f016020809104026020016040519081016040528092919081815260200182805461028b90610f9c565b80156102d85780601f106102ad576101008083540402835291602001916102d8565b820191906000526020600020905b8154815290600101906020018083116102bb57829003601f168201915b5050505050905090565b6000806102ed610641565b90506102fa818585610649565b600191505092915050565b6000600254905090565b60008061031a610641565b905061032785828561065b565b6103328585856106ef565b60019150509392505050565b60006012905090565b600560009054906101000a900473ffffffffffffffffffffffffffffffffffffffff1673ffffffffffffffffffffffffffffffffffffffff163373ffffffffffffffffffffffffffffffffffffffff16146103d7576040517f08c379a00000000000000000000000000000000000000000000000000000000081526004016103ce90611019565b60405180910390fd5b600073ffffffffffffffffffffffffffffffffffffffff168273ffffffffffffffffffffffffffffffffffffffff1603610446576040517f08c379a000000000000000000000000000000000000000000000000000000000815260040161043d90611085565b60405180910390fd5b60008111610489576040517f08c379a000000000000000000000000000000000000000000000000000000000815260040161048090611117565b60405180910390fd5b61049382826107e3565b5050565b60008060008373ffffffffffffffffffffffffffffffffffffffff1673ffffffffffffffffffffffffffffffffffffffff168152602001908152602001600020549050919050565b600560009054906101000a900473ffffffffffffffffffffffffffffffffffffffff1681565b60606004805461051490610f9c565b80601f016020809104026020016040519081016040528092919081815260200182805461054090610f9c565b801561058d5780601f106105625761010080835404028352916020019161058d565b820191906000526020600020905b81548152906001019060200180831161057057829003601f168201915b5050505050905090565b6000806105a2610641565b90506105af8185856106ef565b600191505092915050565b6000600160008473ffffffffffffffffffffffffffffffffffffffff1673ffffffffffffffffffffffffffffffffffffffff16815260200190815260200160002060008373ffffffffffffffffffffffffffffffffffffffff1673ffffffffffffffffffffffffffffffffffffffff16815260200190815260200160002054905092915050565b600033905090565b6106568383836001610865565b505050565b600061066784846105ba565b90507fffffffffffffffffffffffffffffffffffffffffffffffffffffffffffffffff81146106e957818110156106d9578281836040517ffb8f41b20000000000000000000000000000000000000000000000000000000081526004016106d093929190611137565b60405180910390fd5b6106e884848484036000610865565b5b50505050565b600073ffffffffffffffffffffffffffffffffffffffff168373ffffffffffffffffffffffffffffffffffffffff16036107615760006040517f96c6fd1e0000000000000000000000000000000000000000000000000000000081526004016107589190610f12565b60405180910390fd5b600073ffffffffffffffffffffffffffffffffffffffff168273ffffffffffffffffffffffffffffffffffffffff16036107d35760006040517fec442f050000000000000000000000000000000000000000000000000000000081526004016107ca9190610f12565b60405180910390fd5b6107de838383610a3c565b505050565b600073ffffffffffffffffffffffffffffffffffffffff168273ffffffffffffffffffffffffffffffffffffffff16036108555760006040517fec442f0500000000000000000000000000000000000000000000000000000000815260040161084c9190610f12565b60405180910390fd5b61086160008383610a3c565b5050565b600073ffffffffffffffffffffffffffffffffffffffff168473ffffffffffffffffffffffffffffffffffffffff16036108d75760006040517fe602df050000000000000000000000000000000000000000000000000000000081526004016108ce9190610f12565b60405180910390fd5b600073ffffffffffffffffffffffffffffffffffffffff168373ffffffffffffffffffffffffffffffffffffffff16036109495760006040517f94280d620000000000000000000000000000000000000000000000000000000081526004016109409190610f12565b60405180910390fd5b81600160008673ffffffffffffffffffffffffffffffffffffffff1673ffffffffffffffffffffffffffffffffffffffff16815260200190815260200160002060008573ffffffffffffffffffffffffffffffffffffffff1673ffffffffffffffffffffffffffffffffffffffff168152602001908152602001600020819055508015610a36578273ffffffffffffffffffffffffffffffffffffffff168473ffffffffffffffffffffffffffffffffffffffff167f8c5be1e5ebec7d5bd14f71427d1e84f3dd0314c0f7b2291e5b200ac8c7c3b92584604051610a2d9190610e31565b60405180910390a35b50505050565b600073ffffffffffffffffffffffffffffffffffffffff168373ffffffffffffffffffffffffffffffffffffffff1603610a8e578060026000828254610a82919061119d565b92505081905550610b61565b60008060008573ffffffffffffffffffffffffffffffffffffffff1673ffffffffffffffffffffffffffffffffffffffff16815260200190815260200160002054905081811015610b1a578381836040517fe450d38c000000000000000000000000000000000000000000000000000000008152600401610b1193929190611137565b60405180910390fd5b8181036000808673ffffffffffffffffffffffffffffffffffffffff1673ffffffffffffffffffffffffffffffffffffffff16815260200190815260200160002081905550505b600073ffffffffffffffffffffffffffffffffffffffff168273ffffffffffffffffffffffffffffffffffffffff1603610baa5780600260008282540392505081905550610bf7565b806000808473ffffffffffffffffffffffffffffffffffffffff1673ffffffffffffffffffffffffffffffffffffffff168152602001908152602001600020600082825401925050819055505b8173ffffffffffffffffffffffffffffffffffffffff168373ffffffffffffffffffffffffffffffffffffffff167fddf252ad1be2c89b69c2b068fc378daa952ba7f163c4a11628f55a4df523b3ef83604051610c549190610e31565b60405180910390a3505050565b600081519050919050565b600082825260208201905092915050565b60005b83811015610c9b578082015181840152602081019050610c80565b60008484015250505050565b6000601f19601f8301169050919050565b6000610cc382610c61565b610ccd8185610c6c565b9350610cdd818560208601610c7d565b610ce681610ca7565b840191505092915050565b60006020820190508181036000830152610d0b8184610cb8565b905092915050565b600080fd5b600073ffffffffffffffffffffffffffffffffffffffff82169050919050565b6000610d4382610d18565b9050919050565b610d5381610d38565b8114610d5e57600080fd5b50565b600081359050610d7081610d4a565b92915050565b6000819050919050565b610d8981610d76565b8114610d9457600080fd5b50565b600081359050610da681610d80565b92915050565b60008060408385031215610dc357610dc2610d13565b5b6000610dd185828601610d61565b9250506020610de285828601610d97565b9150509250929050565b60008115159050919050565b610e0181610dec565b82525050565b6000602082019050610e1c6000830184610df8565b92915050565b610e2b81610d76565b82525050565b6000602082019050610e466000830184610e22565b92915050565b600080600060608486031215610e6557610e64610d13565b5b6000610e7386828701610d61565b9350506020610e8486828701610d61565b9250506040610e9586828701610d97565b9150509250925092565b600060ff82169050919050565b610eb581610e9f565b82525050565b6000602082019050610ed06000830184610eac565b92915050565b600060208284031215610eec57610eeb610d13565b5b6000610efa84828501610d61565b91505092915050565b610f0c81610d38565b82525050565b6000602082019050610f276000830184610f03565b92915050565b60008060408385031215610f4457610f43610d13565b5b6000610f5285828601610d61565b9250506020610f6385828601610d61565b9150509250929050565b7f4e487b7100000000000000000000000000000000000000000000000000000000600052602260045260246000fd5b60006002820490506001821680610fb457607f821691505b602082108103610fc757610fc6610f6d565b5b50919050565b7f4e6f742074686520636f6e7472616374206f776e657200000000000000000000600082015250565b6000611003601683610c6c565b915061100e82610fcd565b602082019050919050565b6000602082019050818103600083015261103281610ff6565b9050919050565b7f43616e6e6f74206d696e7420746f20746865207a65726f206164647265737300600082015250565b600061106f601f83610c6c565b915061107a82611039565b602082019050919050565b6000602082019050818103600083015261109e81611062565b9050919050565b7f4d696e7420616d6f756e74206d7573742062652067726561746572207468616e60008201527f207a65726f000000000000000000000000000000000000000000000000000000602082015250565b6000611101602583610c6c565b915061110c826110a5565b604082019050919050565b60006020820190508181036000830152611130816110f4565b9050919050565b600060608201905061114c6000830186610f03565b6111596020830185610e22565b6111666040830184610e22565b949350505050565b7f4e487b7100000000000000000000000000000000000000000000000000000000600052601160045260246000fd5b60006111a882610d76565b91506111b383610d76565b92508282019050808211156111cb576111ca61116e565b5b9291505056fea2646970667358221220281eac578a68a82256c09d59309de5dadb2586e3fea49158a3e8d47ca6326e5a64736f6c63430008140033",
  "linkReferences": {},
  "deployedLinkReferences": {}
}